:101800003BC06FC054C053C052C051C050C04FC045
:101810004EC04DC04CC04BC04AC049C048C047C074
:1018200046C045C044C0040309041C037700770088
:1018300077002E00660069007300630068006C008A
:101840002E00640065000E03550053004200610045
:101850007300700012011001FF000008C016DC05C3
:101860000201010200010902120001010080320997
:10187000040000000000000011241FBECFE5D4E0EA
:10188000DEBFCDBF10E0A0E6B0E0E6E6FFE102C0BB
:1018900005900D92A636B107D9F710E0A6E6B0E0A4
:1018A00001C01D92AC39B107E1F754D15BC3A8CF99
:1018B000A82FB92F80E090E041E050EA60956F5F7B
:1018C00058F42D9138EF82279795879510F084274B
:1018D00095273F5FC8F3F3CF0895EADF8D939D937B
:1018E0000895CF93CFB7CF93C395839BE9F7839B9D
:1018F00009C0839B07C0839B05C0839B03C0839B58
:1019000001C0A1C0DF93C0917F00DD27CA57DF4F20
:10191000839B02C0DF91EBCF2F930F931F9300B3F4
:101920002FEF03FB20F94F933F9310B34FEF0127A5
:1019300003FB21F93BE031C04E7F012F10B3216042
:1019400028C0102F4D7F2260000000B329C04B7FBC
:101950002460012F000010B32BC010B3477F286014
:101960002AC04F7E00B320612CC04F7D10B320628F
:101970002FC04F7B00B3206432C0422700B349938D
:101980004FEF0000102713FB20F910B31C70C9F1B2
:10199000297F91F2012703FB21F900B3237F89F20C
:1019A000315058F1102713FB22F910B3277E79F23A
:1019B000012703FB23F92F7C81F200B3102713FBCF
:1019C00024F92F7971F200C010B3012703FB25F928
:1019D0002F7359F200C000B3102713FB26F92230F1
:1019E00040F200C010B3012703FB27F9243028F68A
:1019F0004F77206810B30000F9CF10E41ABF00271A
:101A000017C03B503195C31BD04010E41ABF08816A
:101A1000033CE9F00B34D9F020917D001981110FBE
:101A20001213EDCF093641F10D3211F0013E39F7B5
:101A3000009384003F914F911F910F912F91DF915F
:101A4000CAB7C6FD51CFCF91CFBFCF911895209186
:101A50008400222379F310918200112311F5343090
:101A600012F13093820020937E0010917F003BE0C2
:101A7000311B30937F0017C00091820001308CF43D
:101A80000AE53091600034FD10C000936000C2E7A9
:101A9000D0E00FC02795A8F45150A9F4220F000000
:101AA000F9CF4AE503C042ED01C0432FC4E1D0E0C5
:101AB00032E011B31C60939A11BB02B320E41CE026
:101AC0005F93012756E002BB279520F4515021F483
:101AD000220FF9CF012756E000003B5A02BBD0F29B
:101AE000279528F4515029F4220F0000F9CF01273F
:101AF00056E0279502BB20F4515021F4220FF9CF74
:101B0000012756E02991332302BB21F6037F109170
:101B10008300110FC651D04002BB11F010937D001D
:101B200010E41ABF086011B3137F402F437F5F9109
:101B300000C000C002BB11BB42BB7CCF12BAF894FC
:101B40001BBE15BE81E08BBF1BBEE0917000F09103
:101B500071000995CFE5D4E0DEBFCDBF88E10FB6B7
:101B6000F89481BD11BC0FBE949A04B601FEE4C185
:101B700014BE81E08BBF82E08BBF8499DDC185B745
:101B8000836085BF8BB780648BBF8B9A20E005C0D4
:101B9000A89588EB9BE00197F1F72150C9F78B9846
:101BA0007894992400E04BE7E42E40E0F42E36E6EA
:101BB000632E38E1732E24E5422E28E1522E96E65C
:101BC000292E90E0392E88EFA82E8FEFB82EAE0C7C
:101BD000BF1C90918200935097FD2DC180917F0092
:101BE000C2E9D0E0C81BD10980917E008D3209F096
:101BF000BFC0983009F01DC183EC809372008AE564
:101C00008093600010926A00888180762981882301
:101C100009F441C030928100209280002330D9F431
:101C2000DB80EC81CE2E8A81803331F4E370FF2794
:101C3000EE59FF4F80810BC0803A19F4C6017DD167
:101C400006C0803C19F46D81C6017FD180E080938D
:101C5000690024E083C0253011F421E07FC0822F89
:101C60008450863088F48A819B8190936D008093A4
:101C70006C00293071F08E8180936E008D818270AE
:101C800080936F002FEF63C0223019F481E08093BE
:101C90006B0020E063C09A8110927B00222321F424
:101CA00010927C0022E04CC0253019F49093830000
:101CB00046C02630A9F58B81813029F450928100ED
:101CC0004092800006C0823031F4709281006092B0
:101CD000800022E121C08330F1F4992341F486E2AF
:101CE00098E1909381008093800024E015C09130AA
:101CF00041F48AE298E190938100809380002CE186
:101D00000BC0923041F486E498E190938100809377
:101D100080002EE001C020E080E480936A0015C0BE
:101D2000283021F421E085E890E00BC0293019F437
:101D30009093850004C02A3011F421E001C020E016
:101D4000C70190938100809380002F3F39F48881F0
:101D500087FD2E8180E880936A0007C08F818823E9
:101D600021F48E81821708F4282F2093610061C02E
:101D700080916A0087FF5DC080916E00492F8917AE
:101D800008F4482F841B80936E0060E0882309F4D8
:101D900061E070916F00E0916C00F0916D0050E097
:101DA00037C0CF018F739070892B49F4F89483E08A
:101DB00080935700E895789407B600FCFDCF5E5FEE
:101DC000F89481E029913991090180935700E895B1
:101DD000112478949F012E5F3F4FC9018F7390703B
:101DE000892B31F0662399F0541788F0772379F026
:101DF000F89485E080935700E895789407B600FC46
:101E0000FDCFF89481E180935700E8957894F9012B
:101E1000541708F4C6CFF0936D00E0936C006F3F49
:101E200021F48EE18093600004C0662311F01092CB
:101E30006100109282008091600084FF69C08091EF
:101E400061008F3F09F464C0182F893008F018E052
:101E5000811B809361008091720098E889278093AC
:101E60007200112309F443C080916A0087FF1DC0EE
:101E700080916E00811708F4182F811B80936E00EB
:101E800020916C0030916D00F901D50190E004C003
:101E900084918D939F5F31969117D1F7210F311D5A
:101EA00030936D0020936C0020C020918000309111
:101EB000810086FF09C0912FF901D50184918D938E
:101EC00031969150D9F707C0912FD901F5018D9125
:101ED00081939150E1F7C90101961150810F911D35
:101EE0001F5F9093810080938000193058F4612F18
:101EF000C501F3DC612F6C5F6C3041F08FEF809394
:101F0000610004C08FEF809361006EE16093600018
:101F100094E180B38C7031F49150D9F71092830022
:101F200010927D0080916B00882321F09A9411F427
:101F3000015011F0849B4DCE01DEE199FECF9FBB95
:101F40008EBBE09A99278DB30895262FE199FECF95
:101F50009FBB8EBB2DBB0FB6F894E29AE19A0FBEE1
:061F600001960895FFCF79
:061F66005AFF1E93070064
:0400000300001800E1
:00000001FF
