:1000000036C059C14FC04EC04DC04CC04BC04AC095
:1000100049C048C047C046C045C044C043C042C0B4
:1000200041C040C03FC00403090410035300320024
:1000300044006500760065006C0010035500530015
:10004000420067004C004300440012011001FF0011
:100050000008C016DC0500010102000109021200BF
:10006000010100803209040000000000000011249A
:100070001FBECFE5D4E0DEBFCDBF10E0A0E6B0E00C
:10008000E8E4F4E102C005900D92A636B107D9F775
:1000900010E0A6E6B0E001C01D92A73AB107E1F773
:1000A00078D2D1C9ADCF85B7836085BF8BB7806467
:1000B0008BBF08950F931F93CF93DF93909185008B
:1000C00019160CF087C020918200809181008D323A
:1000D00009F078C08AE5809361009B3009F072C016
:1000E000C5E9D0E0C21BD1098881807609F05BC0E8
:1000F0002EE730E010927E008981882341F410922F
:100100007F00309384002093830092E04FC08530BD
:1001100021F48A81809386003CC0863061F58B8112
:10012000813019F48AE490E004C0823041F48CE517
:1001300090E0909384008093830092E13AC08330F2
:10014000B9F58A81882341F486E290E09093840097
:100150008093830094E02DC0813019F48AE290E00E
:1001600004C0823029F58AE390E090938400809364
:10017000830090E11EC0883039F488E890E09093C5
:100180008400809383000DC0893029F48A81809394
:10019000880090E00BC08A30E1F730938400209310
:1001A000830091E003C0CE0145D2982F20E802C021
:1001B00090E020EC8F81882339F48E81891720F418
:1001C000982F02C090E020E8209366009093600092
:1001D000109285008091610084FF45C0809160008D
:1001E0008F3F09F440C0182F893008F018E0811BB8
:1001F000809360008091660080FF02C003EC01C024
:100200000BE48F5F8093660020918300309184001F
:1002100086FD05C0912FF901A6E7B0E00DC0912F32
:10022000F901A6E7B0E003C084918D933196915017
:10023000D8F704C081918D939150E0F7C901810FE7
:10024000911D9093840080938300612F86E790E056
:100250002ED0183019F08FEF809360000093750056
:100260001C5F109361009AE080B38C7031F4915060
:10027000D9F71092860010928000DF91CF911F91E4
:100280000F910895A82FB92F80E090E041E050EA47
:1002900060956F5F58F42D9138EF82279795879579
:1002A00010F0842795273F5FC8F3F3CF0895EADF66
:1002B0008D939D930895CF93CFB7CF93839BFECF1C
:1002C000839B09C0839B07C0839B05C0839B03C09E
:1002D000839B01C0A1C0DF93C0918200DD27C75777
:1002E000DF4F839B02C0DF91EBCF2F930F931F93C0
:1002F00000B32FEF03FB20F94F933F9310B34FEF61
:10030000012703FB21F93BE031C04E7F012F10B3E1
:10031000216028C0102F4D7F2260000000B329C04B
:100320004B7F2460012F000010B32BC010B3477F18
:1003300028602AC04F7E00B320612CC04F7D10B3CF
:1003400020622FC04F7B00B3206432C0422700B32D
:1003500049934FEF0000102713FB20F910B31C70D6
:10036000C9F1297F91F2012703FB21F900B3237F13
:1003700089F2315058F1102713FB22F910B3277E70
:1003800079F2012703FB23F92F7C81F200B31027B8
:1003900013FB24F92F7971F200C010B3012703FB7E
:1003A00025F92F7359F200C000B3102713FB26F96B
:1003B000223040F200C010B3012703FB27F924309C
:1003C00028F64F77206810B30000F9CF10E41ABF69
:1003D000002717C03B503195C31BD04010E41ABF13
:1003E0000881033CE9F00B34D9F020918000198199
:1003F000110F1213EDCF093641F10D3211F0013E0C
:1004000039F7009387003F914F911F910F912F91E2
:10041000DF91CAB7C6FD52CFCF91CFBFCF9118950C
:1004200000918700002379F310918500112349F58D
:1004300034304AF13093850000938100109182009E
:100440003BE0311B309382001EC0009185000130DB
:10045000C4F40AE53091610034FD17C000936100D7
:10046000C5E7D0E016C0052710E002BB1FC0052776
:1004700022C0052727C005272CC0052710E002BB96
:1004800033C04AE503C042ED01C0432FC4E1D0E0D0
:1004900032E011B31C60939A02B311BB5F935CE02E
:1004A00020E820FF052702BB279517951C3FD8F6AB
:1004B00020FF0527279502BB17951C3FC0F620FF9C
:1004C00005272795179502BB1C3F98F620FF0527A7
:1004D000279517951C3F02BB70F600C0499120FF7D
:1004E000052702BB279517951C3F38F620FF0527E7
:1004F000279502BB17951C3F38F520FF0527279548
:10050000179502BB1C3F10F520FF0527279517956F
:100510001C3F02BBE8F4242F3A9519F6037F5F9144
:1005200002BB10918600110FC651D04011F01093FC
:10053000800010E41ABF086011B3137F402F437F7F
:1005400002BB11BB42BB5FCF0527D3CF0527D8CF56
:100550000527DDCFEDE6F0E090E021E0808181111C
:10056000922B319680E0E537F80711F0220FF6CF95
:10057000892F992708951F9385E290E053D6182F6D
:10058000E9DF92B3182713709C7F912B92BB1F91C8
:100590000895CFE5D4E0DEBFCDBF6DD2B3D181D118
:1005A00087B3866087BB81EA8FBD81E08EBD28E17D
:1005B00030E03BBD2ABD84E690E099BD88BD8EE069
:1005C0000FB6F894A89521BD0FBE81BD8BEE81BBFF
:1005D00012BAD1DF8B9A20E005C0A89584EF91E094
:1005E0000197F1F72150C9F78B9885E083BF5BDD58
:1005F0007894CDE6D0E0A8955DDD08B600FEFBCF8F
:1006000088B7816088BF80916800815080936800BE
:100610008F3F89F788E080936800FE0180818823FE
:1006200011F081508083319680E0E537F807B1F70B
:10063000A2DFE1CFCF93DF93EC0185E290E0F2D52A
:10064000482F89E690E0909384008093830039815D
:10065000332329F48A81809369008B8105C031306E
:1006600041F44093690076DF80936A0082E090E075
:1006700007C1832F8250823040F52C812770E22FF2
:10068000FF2781E090E0682F01C0660F2A95EAF706
:10069000862F8423323031F4642B90E0882329F4B0
:1006A00091E003C060956423982F8A81882341F4E8
:1006B000E359FF4F1082637085E290E0BBD505C01F
:1006C000992319F0E359FF4F80838981853079F4AC
:1006D00081E08093690082E080936A0083E08093E8
:1006E0006B0084E080936C0084E090E0C9C08A30A5
:1006F00049F4C1D188E190E09BBD8ABD84E690E0D9
:1007000099BD88BD89818B3009F4CBD089818C302B
:1007100009F4F8D089818D3069F46C8177278B8159
:100720009927982F88272A81332741E050E0822B90
:10073000932B1DD189818E3019F46C818A81D9D097
:1007400089818F30D9F48B819927982F88272A8126
:100750003327822B932B9F938F9382E690E09F9376
:100760008F93DF93CF9349D3CE01DFD08DB79EB760
:1007700006960FB6F8949EBF0FBE8DBF898180315B
:10078000C9F48B819927382F22278A819927282B12
:10079000392B2130310521F48AB59BB5019707C06B
:1007A0002F5F3F4F09F069C08AB59BB501969BBD8D
:1007B0008ABD63C08131C9F48B819927382F2227E4
:1007C0008A819927282B392B2130310521F488B5CE
:1007D00099B5039607C02F5F3F4F09F04EC088B50B
:1007E00099B5039799BD88BD48C0823109F045C0CD
:1007F000809167008823E1F48B819927982F8827BF
:100800002A813327822B932B9093A4008093A300FB
:100810008D819927982F88272C813327822B932B22
:100820009093A6008093A50081E08093670025C087
:10083000813019F54B815527542F44278A819927F8
:10084000482B592B5093A2004093A1002D813327B0
:10085000322F22278C819927282B392B3093A00007
:1008600020939F00109267006091A5007091A600F0
:100870008091A3009091A400EBD17DDE80E090E018
:10088000DF91CF9108950F931F938C0186E484D15B
:10089000802F48D1012F1127802F44D11F910F9114
:1008A0000895CF93DF9380EB94E0EDDF82E474D181
:1008B000C0E0D0E080E036D1219685E2C038D8078C
:1008C000C9F7DF91CF91089523E0969587952A95F2
:1008D000E1F780559B4F28E230E0A901649F900129
:1008E000659F300D749F300D1124820F931FCBDF55
:1008F000089598E2699FB0011124680F711DCB0122
:10090000C2DF0895CF93DF9360E080E0F2DF82E4FE
:1009100043D1C0E0D0E080E205D1219684E0C03B25
:10092000D807C9F7DF91CF910895CF93DF93EC01FA
:1009300082E432D102C02196F5D088818823D9F78C
:10094000DF91CF9108950F931F9387E425D15CD158
:10095000082F5AD1992787FD9095982F882711271E
:1009600007FD1095800F911F1F910F910895EF9231
:10097000FF920F931F93CF93DF938C017A01EC01C9
:1009800043E0D695C7954A95E1F7C055DB4F88E21D
:1009900090E09C01629FC001639F900D729F900D3B
:1009A0001124C80FD91FCE016EDF83E4F5D02CD1FE
:1009B000482F980120953095EF2861F0277030700E
:1009C00081E090E002C0880F991F2A95E2F7042F7A
:1009D000082B0CC02770307081E090E002C0880FB7
:1009E000991F2A95E2F7082F00950423CE014BDFCB
:1009F00082E4D2D0802F96D0DF91CF911F910F91BA
:100A0000FF90EF9008950F931F93CF93DF93EC0126
:100A100082E4C2D007C08E010F5F1F4FCE0114D1F8
:100A200081D0E801CE0110D18823A9F7DF91CF91C1
:100A30001F910F9108950F931F93CF93DF93CDB71D
:100A4000DEB727970FB6F894DEBF0FBECDBF47E0E5
:100A500050E08E010F5F1F4FB801B0D1C80165DFB4
:100A600027960FB6F894DEBF0FBECDBFDF91CF91B2
:100A70001F910F91089543D080E48ED080E352D02F
:100A800087E850D087E04ED087E24CD08BE24AD046
:100A90008FEE48D088E246D080E044D084E47CD019
:100AA00080E040D080E03ED08FEE3CD080EB3AD06A
:100AB00084E038D08FEE36D080E034D080E032D081
:100AC00080E030D080E02ED08DE566D084E02AD062
:100AD00087E028D08CE560D080E024D080E722D069
:100AE0008CE45AD08AE558D080E01CD08BE554D0F5
:100AF00081E018D089E550D086E114D00895B89AE5
:100B0000BB9ABC9ABD9AA09AA19AA29AA39A979AC4
:100B1000959AAD9A969AAC9A8F9A8D9AA59A8E9A32
:100B2000A49A0895282F332720FF02C0C09A01C03D
:100B3000C09821FF02C0C39A01C0C39822FF02C01F
:100B4000C49A01C0C49823FF02C0C59A01C0C598C9
:100B500024FF02C0A89A01C0A89825FF02C0A99A44
:100B600001C0A99826FF02C0AA9A01C0AA9887FFCF
:100B700002C0AB9A01C0AB98B89ABB9ABC9ABD9A16
:100B8000A09AA19AA29AA39A9698979895980000ED
:100B9000969A979A959A0895282F332720FF02C096
:100BA000C09A01C0C09821FF02C0C39A01C0C39877
:100BB00022FF02C0C49A01C0C49823FF02C0C59A94
:100BC00001C0C59824FF02C0A89A01C0A89825FFBB
:100BD00002C0A99A01C0A99826FF02C0AA9A01C022
:100BE000AA9887FF02C0AB9A01C0AB98B89ABB9A8B
:100BF000BC9ABD9AA09AA19AA29AA39A96989598FF
:100C00000000969A959A08959698AD980000B89825
:100C1000BB98BC98BD98A098A198A298A3980000F2
:100C200086B38170B3998260B4998460B599886005
:100C300098998061999980629A9980649B9980685B
:100C4000969AAD9A99270895FC0184919927089561
:100C50002F923F924F925F926F927F928F929F92CC
:100C6000AF92BF92CF92DF92EF92FF920F931F93BA
:100C7000CF93DF93CDB7DEB726970FB6F894DEBFDC
:100C80000FBECDBF5C016B015A8349833C832B832C
:100C90007A01E81AF90A8901061B170B3701660C5D
:100CA000771C4801880C991CF7FC04C091E0292EA0
:100CB000312C0BC0F094E194F108F394709461949A
:100CC0007108739422242A94322C17FD04C081E009
:100CD000482E512C0AC0109501951F4F9094819475
:100CE0009108939444244A94542C41E050E0B60176
:100CF000C5013DDEE114F10421F40115110509F4EB
:100D000044C0E016F106F4F0A20CB31C8601CC241A
:100D1000DD24C80CD91CEC14FD0424F4040D151DAD
:100D2000C618D70841E050E0B801C50120DEA20C8A
:100D3000B31CC5018219930929813A81821793074F
:100D400021F1E7CFC40CD51CDE82CD827501CC2405
:100D5000DD24C60CD71C0C151D0524F4E20CF31C75
:100D6000C818D90841E050E06D817E81C701FFDDE0
:100D70008D819E81840D951D9E838D838419950997
:100D8000EB81FC818E179F0721F726960FB6F8940A
:100D9000DEBF0FBECDBFDF91CF911F910F91FF90AE
:100DA000EF90DF90CF90BF90AF909F908F907F900B
:100DB0006F905F904F903F902F900895FB019F019F
:100DC000E8944230BCF04532ACF44A3029F497FB49
:100DD0001EF4909581959F4F642F7727E9D2805D0F
:100DE0008A330CF0895D8193CB010097A9F716F443
:100DF0005DE251931082C90140C2A0E1B0E0E2E09F
:100E0000F7E0F8C20F89188D86E08E831C830B8370
:100E10008FEF9FE798878F83AE01455E5F4F5A83C0
:100E20004983698D7A8DCE01039609D029853A854B
:100E3000020F131FF8011082E4E06096F7C22F92B0
:100E40003F925F926F927F928F929F92AF92BF92EA
:100E5000CF92DF92EF92FF920F931F93CF93DF9386
:100E6000CDB7DEB72B970FB6F894DEBF0FBECDBF60
:100E70003C014B016A01FC0117821682838181FDCE
:100E800003C08FEF9FEFB6C11E010894211C311CD7
:100E9000F3013381F40133FD859133FF81914F01DB
:100EA000882309F4A4C1853239F433FD859133FFD9
:100EB00081914F01853221F4B3019927EED1E8CF1A
:100EC000982F10E05524AA241032B0F49B3269F018
:100ED0009C3228F4903251F0933271F40BC09D3261
:100EE00039F0903349F411602AC01260146027C0B1
:100EF000186025C0106123C017FD2AC0292F205378
:100F00002A3088F416FF07C08AE0A89EC001112489
:100F1000A22EA80E14C08AE0589EC0011124522EA1
:100F2000580E10620CC09E3221F416FD60C1106490
:100F300006C09C3611F4106802C0983649F4F401DA
:100F400033FD959133FF91914F01992309F0BCCF67
:100F5000892F8554833018F08052833038F424E090
:100F600030E0C20ED31E8FE389830FC0933631F079
:100F7000933781F0933509F052C01FC0F60180818C
:100F8000898322E030E0C20ED31E710181E0A82ED9
:100F9000B12C11C0F601E080F18016FD03C06FEFA7
:100FA0007FEF02C06A2D772722E030E0C20ED31E09
:100FB000C70158D15C011F7712C0F601E080F180B3
:100FC00016FD03C06FEF7FEF02C06A2D772722E086
:100FD00030E0C20ED31EC7013AD15C01106813FF86
:100FE00006C019C0B30180E290E057D15A94852D14
:100FF0009927A816B906B0F30EC0F70117FD859121
:1010000017FF81917F01B301992747D151105A945D
:101010000894A108B108A114B10479F7E5C0943689
:1010200011F0993661F517FF0AC0F60160817181F0
:101030008281938124E030E0C20ED31E0DC0F60100
:10104000808191819C01B901882777FD8095982F37
:1010500042E050E0C40ED51E012F0F7697FF08C066
:1010600090958095709561957F4F8F4F9F4F006849
:101070002AE030E0A1013ED1B82EB2183FC095372A
:1010800021F41F7E2AE030E01CC0197F9F3661F0FA
:10109000903720F4983509F0AAC00FC0903739F086
:1010A000983709F0A4C004C028E030E00AC01061FD
:1010B00014FD146020E130E004C014FD166020E14E
:1010C00032E017FF0AC0F60160817181828193814D
:1010D00044E050E0C40ED51E0BC0F6018081918122
:1010E000AC01BA0188279927E2E0F0E0CE0EDF1EBE
:1010F000A10100D1B82EB218012F0F7706FF0BC047
:101100000E7FBA1440F4802F992784FF06C082FD19
:1011100004C00F7E02C01B2D01C01A2D202F3327C3
:1011200024FF0CC0FE01EB0DF11D8081803311F412
:10113000097E08C01F5F22FF05C003C0822F86788A
:1011400009F01F5FE02EFF24E3FC13C0E0FE0EC099
:10115000151510F0AB2C0AC0AB2CA50CA11A152D3F
:1011600005C0B30180E290E098D01F5F1515C8F369
:1011700004C0151510F4511A01C05524E4FE0FC027
:10118000B30180E390E089D0E2FE1CC0E1FE03C021
:1011900088E590E002C088E790E0B3010CC08E2D96
:1011A000867881F0E1FE02C08BE201C080E207FD9B
:1011B0008DE2B301992771D005C0B30180E390E0BF
:1011C0006CD0AA94BA14C8F3BA94F101EB0DF11DD6
:1011D0008081B301992761D0BB2031F0F5CFB301F5
:1011E00080E290E05AD05A945520C9F751CEF301CD
:1011F000868197812B960FB6F894DEBF0FBECDBFC8
:10120000DF91CF911F910F91FF90EF90DF90CF90E2
:10121000BF90AF909F908F907F906F905F903F9026
:101220002F900895E199FECF9FBB8EBBE09A99273E
:101230008DB30895262FE199FECF9FBB8EBB2DBBAA
:101240000FB6F894E29AE19A0FBE01960895FC0158
:101250000590615070400110D8F7809590958E0FE1
:101260009F1F0895FC016150704001900110D8F754
:10127000809590958E0F9F1F0895DC01FC01672FCC
:1012800071917723E1F7329704C07C916D9370835D
:101290006291AE17BF07C8F308950F931F93CF93C2
:1012A000DF938C01EB018B81992781FF1BC082FFAB
:1012B0000DC02E813F818C819D812817390764F4F0
:1012C000E881F9810193F983E88306C0E885F9850F
:1012D000802F0995892B31F48E819F8101969F8300
:1012E0008E8302C00FEF1FEFC801DF91CF911F91D6
:1012F0000F910895FA01AA27283051F1203181F188
:10130000E8946F936E7F6E5F7F4F8F4F9F4FAF4F0D
:10131000B1E03ED0B4E03CD0670F781F891F9A1F20
:10132000A11D680F791F8A1F911DA11D6A0F711DD4
:10133000811D911DA11D20D009F468943F912AE0E0
:10134000269F11243019305D3193DEF6CF010895C8
:10135000462F4770405D4193B3E00FD0C9F7F6CFF9
:10136000462F4F70405D4A3318F0495D31FD4052C1
:10137000419302D0A9F7EACFB4E0A6959795879557
:1013800077956795BA95C9F7009761057105089536
:101390009B01AC010A2E06945795479537952795E2
:1013A000BA95C9F7620F731F841F951FA01D08957A
:1013B000AA1BBB1B51E107C0AA1FBB1FA617B7077B
:1013C00010F0A61BB70B881F991F5A95A9F7809597
:1013D0009095BC01CD0108952F923F924F925F925C
:1013E0006F927F928F929F92AF92BF92CF92DF9235
:1013F000EF92FF920F931F93CF93DF93CDB7DEB79A
:10140000CA1BDB0B0FB6F894DEBF0FBECDBF09942D
:101410002A88398848885F846E847D848C849B8484
:10142000AA84B984C884DF80EE80FD800C811B8192
:10143000AA81B981CE0FD11D0FB6F894DEBF0FBEC1
:08144000CDBFED010895FFCFBF
:06144800FF5A25630001BC
:00000001FF
